:020000040800F2
:10000000404D0024AD020008F76B00087F63000834
:10001000F56B0008D9090008117A000800000000FB
:10002000000000000000000000000000636F0008F6
:10003000210E000800000000F96B0008656F000841
:10004000C7020008C7020008C7020008C70200086C
:10005000C7020008C7020008C70200082B0E0008EC
:10006000C7020008310E0008C7020008C7020008D6
:10007000DD090008C7020008C7020008C70200081F
:10008000C7020008C70200083D050008C7020008B3
:10009000C7020008C7020008C7020008C70200081C
:1000A000C7020008C7020008C7020008C70200080C
:1000B000C7020008C7020008C7020008C7020008FC
:1000C000C7020008C7020008C7020008C7020008EC
:1000D000C7020008057A0008C7020008C702000826
:1000E000230E0008C702000800000000C702000835
:1000F00035710008C7020008C7020008C7020008DF
:10010000C7020008C7020008C7020008C7020008AB
:10011000C7020008C702000829710008C7020008CA
:10012000C7020008C7020008C7020008C70200088B
:10013000C7020008C7020008C7020008C70200087B
:1001400000000000000000000000000000000000AF
:10015000C7020008C7020008C7020008C70200085B
:10016000C7020008C7020008C7020008C70200084B
:10017000C7020008C7020008C7020008C70200083B
:10018000C7020008C7020008C7020008C70200082B
:10019000C7020008C7020008C7020008C70200081B
:1001A000C7020008C7020008C7020008C70200080B
:1001B000C7020008C7020008C7020008C7020008FB
:1001C000C7020008C7020008C7020008C7020008EB
:1001D000C7020008C7020008C7020008C7020008DB
:1001E000C7020008C7020008C7020008C7020008CB
:1001F000C7020008C7020008C7020008C7020008BB
:10020000C7020008C7020008C7020008C7020008AA
:10021000C7020008C7020008C7020008C70200089A
:10022000C7020008C7020008C7020008000000005B
:10023000C7020008C702000800000000C70200084B
:10024000C7020008C7020008C7020008C70200086A
:10025000C7020008C7020008C7020008C70200085A
:10026000C7020008C7020008C7020008C70200084A
:10027000C7020008C7020008C7020008000000000B
:10028000C7020008C7020008C702000800000000FB
:1002900000000000C7020008DFF80CD000F08CF866
:1002A00000480047217F0008404D00240648804751
:1002B00006480047FEE7FEE7FEE7FEE7FEE7FEE74B
:1002C000FEE7FEE7FEE7FEE74D7000089902000832
:1002D0002DE9F05F0546002092469B46884606467B
:1002E000814640241BE0284641464746224600F00E
:1002F00053F853465A46C01A914110D31146184636
:10030000224600F016F82D1A67EB01084F462246E8
:100310000120002100F00DF817EB00094E41201ECE
:10032000A4F10104DFDC484631462A464346BDE8D5
:10033000F09F202A04DB203A00FA02F100207047E7
:100340009140C2F1200320FA03F319439040704713
:1003500040EA01039B0703D009E008C9121F08C047
:10036000042AFAD203E011F8013B00F8013B521EC7
:10037000F9D27047D2B201E000F8012B491EFBD23E
:1003800070470022F6E710B513460A4604461946A0
:10039000FFF7F0FF204610BD202A04DB203A21FAA7
:1003A00002F00021704721FA02F3D040C2F120028E
:1003B0009140084319467047064C074D06E0E06837
:1003C00040F0010394E8070098471034AC42F6D39C
:1003D000FFF766FFF08000081081000870B58C18E8
:1003E00010F8015B15F0070301D110F8013B2A1149
:1003F00006D110F8012B03E010F8016B01F8016B36
:100400005B1EF9D12B0705D40023521E0DD401F831
:10041000013BFAE710F8013BCB1A921C03E013F8FA
:10042000015B01F8015B521EF9D5A142D8D300202F
:1004300070BD000070B53A4905460068884202D098
:10044000384A904202D1D1F8080302E03648D0F889
:10045000080310F4403F11D004F006F90446686820
:10046000B0F5803F06D0B0F5003F03D0B0F5403F77
:1004700026D101E0000C17E0A40821E04FF4002091
:1004800003F024FA044668688103890B18D18114AB
:100490000C2915D2DFE801F0140606060606060B45
:1004A0000D0F1113800C4000B4FBF0F408E0240998
:1004B00006E0640904E0A40902E0E40900E0240A7B
:1004C00002F0E0FC41F20301884208D81748844258
:1004D0002868816813D821F48071816070BD144947
:1004E0006008884204D82868816821F44071F4E7E4
:1004F0001049884206D82868816821F4407141F487
:100500008071EAE70C4988422868816804D821F4A0
:10051000407141F40071E0E741F44071DDE7000013
:10052000002002400021024000600258002D3101ED
:10053000105E5F0020BCBE0040787D01014800F0E5
:100540000FBF00009C43002442F2107350B10128F9
:100550000CD002280ED0032810D1094903220948E3
:1005600004F00ABE064903220939F8E704490322C8
:10057000891FF4E702490322C91EF0E77047000013
:10058000250000240044002410B54FF47A74154966
:1005900015480322234604F0EFFD124903221248B6
:1005A0002346C91C04F0E8FD0E4903220E482346E9
:1005B000891D04F0E1FD0B4903220B482346093154
:1005C00004F0DAFD07490322074823460C3104F002
:1005D000D3FD0449032223460348BDE810400C39EB
:1005E00004F0CABD28000024004400242DE9F0478F
:1005F00086B014216846FFF7C4FE3048016841F018
:1006000040010160016801F040010591016841F07D
:1006100008010160016801F008010591016841F0DD
:100620000401016000684FF48046DFF894800022E6
:1006300000F0040031460590404602F01DFCDFF852
:10064000849001228021484602F016FCDFF878A051
:10065000B71000223946504602F00EFC00240096E6
:10066000012569464046CDE90154039402F0EEFAB3
:1006700068034FF404118DE813006946404602F008
:10068000E5FA80200090CDE901546946484603947C
:1006900002F0DCFA00976946CDE901545046039414
:1006A00002F0D4FA00220421282002F0B9FE28200A
:1006B00002F0A8FE06B0BDE8F0870000E044025852
:1006C00000180258000C02580008025810B5FFF735
:1006D0008DFF00F057F9BDE81040FFF755BF00004F
:1006E00015A110B586B0164CD1E900010022CDE964
:1006F00003011021204602F0BFFB4FF0FF300090B5
:100700001048052301AA03A904F04DFE012220464A
:10071000102102F0B1FB9DF805009DF806209DF820
:10072000071006B002EB002001EB00200002C11709
:1007300000EB1160001210BD12000000000000006C
:1007400000000258004400242DE9F0416C490122C8
:10075000222000F0DDF8DFF8A8816A4DA5F13C0405
:1007600098F80000012829D1A089401C80B2A081FE
:10077000012801D107F0BEFBFFF7B2FF6063020C56
:100780006188030A4E1C6F18B6B2711C89B22E44E0
:1007900007F5805705EB010C06F580560CF5805CDB
:1007A00087F8B420491C86F8B4308CF8B400618016
:1007B00000F00AF90220E082FFF7C6FE40464FF043
:1007C00000080078672859D0232855D1608A46460A
:1007D000401C6082A4F81680FFF782FF6063030C60
:1007E0002189020A05EB010C4F1CB9B205EB010887
:1007F0000CF5805C4F1CB9B208F580588CF8543663
:100800006B1803F5805388F85426491C83F8540666
:100810002181E08AFFF798FE26816680A680E68027
:10082000A681E681268200F0CFF806F02BFD36493E
:10083000020A364DA08281F8572681F8580695F8AD
:10084000C96C40F2995001F2646741F26462B91ACE
:1008500016FB00F007EB8000FFF77AFDB91901F5F0
:100860000051012081F8CA0C85F8CC0C2078C0B367
:10087000C6B3002085F8C90CBDE8F081208A401C71
:100880002082FFF72DFF6063030CE188020A6E18D7
:100890004F1CB9B205EB010C06F580564F1CB9B2DE
:1008A0000CF5805C86F874346B1803F580538CF873
:1008B0007424491C83F87404E18000F085F8E08812
:1008C000B0F5F07F06D0A4F81680E08ABDE8F041CC
:1008D000FFF73ABE0320E082FFF736FE00F06CF827
:1008E000F3E700E009E0304607F0A8FB95F8C80CF4
:1008F00085F8C90C85F8C86CBEE70120BAE700008E
:10090000B04700244000002440100024A4360024F6
:10091000F8B5194E144600220F4610210546304600
:1009200002F0AAFA15480122202102F0A5FA45F0AA
:1009300020018DF80010601E4FF0FF358DF801008A
:1009400002220F482B46694604F016FC0C482B4641
:100950002246394604F01AFB00208DF800000848B2
:1009600001222B46694604F007FC01223046102183
:1009700002F082FAF8BD0000000002580008025898
:100980000044002410B50B4C00228021204602F0C8
:1009900073FA4FF47A7100BF491E0029FBDC012273
:1009A0002046802102F068FABDE81040022002F0E3
:1009B00013B90000000C025801220248110302F092
:1009C0005BBA000000080258024800224FF4805130
:1009D00002F052BA00080258FEE70000014801F098
:1009E00057BA000038470024294A016891423AD09A
:1009F000274A1832914236D0254A3032914232D0BD
:100A0000234A483291422ED0214A603291422AD064
:100A10001F4A7832914226D01D4A9032914222D00C
:100A20001B4AA83291421ED01A4A91421BD0194A41
:100A30001832914217D0174A3032914213D0154ADA
:100A4000483291420FD0134A603291420BD0114A82
:100A50007832914207D00F4A9032914203D00D4A2A
:100A6000A832914211D1CAB21823103AB2FBF3F264
:100A70006FF30901032A02F00703074AD25CC2653B
:100A800000D9091D81650846704721F0FF01F9E78B
:100A90001000024010040240B080000830B5224A25
:100AA000012301689142CAB21BD01F4C1434A142E9
:100AB00017D01D4C2834A14213D01B4C3C34A1420A
:100AC0000FD0194C5034A1420BD0174C6434A142C2
:100AD00007D0154C7834A14203D0134C8C34A1427A
:100AE0000CD11421114C083AB2FBF1F10F4A8032BB
:100AF00001F01F0504EB8101AB4010E00C4D182400
:100B0000103A0D44B2FBF4F1A82D00D80831094A7F
:100B100001F01F0402EB8101064AA34080326030DD
:100B200080E80E0030BD00000854025800580258FA
:100B3000F0FBFDBF0008024010B50279531E072BE1
:100B40002DD8174C0168A1421BD0154C1434A1427A
:100B500017D0134C2834A14213D0114C3C34A1427D
:100B60000FD00F4C5034A1420BD00D4C6434A14235
:100B700007D00B4C7834A14203D0094C8C34A142ED
:100B800003D10849074C443102E00749064C44317F
:100B900004EB8202C0E91B2101219940416710BD8D
:100BA00008540258FC580258FC08024010B58369EA
:100BB0004FF0C074826A0146002053B1B3F5005F64
:100BC00015D072B1012A0CD0022A0AD0032A09D109
:100BD00004E01AB1012A06D0022A03D1C96AC90168
:100BE00000D5012010BDC96AA142FAD010BD002A6B
:100BF000F7D0012AF2D0022AF3D0032AF3D010BD95
:100C00002DE9F04F804E804FDFF8FC911836DFF869
:100C1000F8A148370468856D0AF1300ADFF8ECB1B5
:100C20004C45DFF8ECC1DFF8ECE16DD0B4426BD09D
:100C3000544569D0BC4267D0DFF8D081A8F11808CC
:100C4000444561D05C455FD064455DD074455BD060
:100C5000DFF8C481444557D0DFF8BC8108F118089B
:100C6000444551D0DFF8B08108F1300844454BD0FD
:100C7000DFF8A48108F14808444545D0DFF89881A1
:100C800008F1600844453FD0DFF88C8108F178080E
:100C9000444539D0DFF8808108F19008444533D0CD
:100CA000DFF8748108F1A80844452DD0DFF86C8185
:100CB000444529D0DFF8648108F11408444523D065
:100CC000DFF8588108F1280844451DD0DFF84C8131
:100CD00008F13C08444517D0DFF8408108F150087E
:100CE000444511D0DFF8348108F1640844450BD045
:100CF000DFF8288108F17808444505D0DFF81C8129
:100D000008F18C08444509D1D0E91948C4F8048099
:100D1000C46E1CB1D0E91C48C4F8048004684C457A
:100D20002ED0B4422CD054452AD0BC4228D0374EC5
:100D3000183EB44224D05C4522D0644520D074458E
:100D40001ED0354EB4421BD0334E1836B44217D0A5
:100D5000314E3036B44213D02F4E4836B4420FD005
:100D60002D4E6036B4420BD02B4E7836B44207D0AD
:100D7000294E9036B44203D0274EA836B44215D13E
:100D800090F85C603F2406F01F06B440AC60046835
:100D9000256825F4802525602EE09A600068C160F2
:100DA000BDE8F08F99600068C260F9E71B4EB4425D
:100DB0001BD01A4E1436B44217D0184E2836B442FF
:100DC00013D0164E3C36B4420FD0144E5036B442B7
:100DD0000BD0124E6436B44207D0104E7836B4426F
:100DE00003D00E4E8C36B442DAD190F85C60012408
:100DF00006F01F06B4406C60046863608368402B93
:100E00000368CFD1C9E7000010000240880002400B
:100E1000A0000240B80002401004024008540258EA
:100E200070474FF4005001F005BF022001F002BFEF
:100E3000082001F0FFBE72B6FEE7704770477047AA
:100E4000704770472DE9F0470F4690F850109AB060
:100E5000044601294FF0000915D00026DFF8F8807C
:100E6000012084F8500015961696216841450ED150
:100E70003A4D0095284605F0B5FC8246206805F0FD
:100E8000B1FC60B10EE002201AB0BDE8F087606DE1
:100E900084F8506040F0200060650120F4E7BAF16A
:100EA000000F09D0616D4FF0010941F0200060652D
:100EB000484684F85060E7E720684146884201D000
:100EC000A84201D1264800E0264840F61F72D7F814
:100ED00000C0254BBCF1000F23D0D0F808C0D7F8D4
:100EE00004802CF4404C4CEA080CC0F808C0D4F83C
:100EF00000C08C4501D0AC4507D18968AB6801F0D2
:100F0000010103F00103194302E0996801F00101B6
:100F10000029CDD1BD6839688368294393431943BB
:100F200017E0876827F44047876027688F4201D021
:100F3000AF4207D18968AB6801F0010103F00103FA
:100F4000194302E0996801F001010029B0D18168DC
:100F500091438160ACE70000002002400021024084
:100F60000023024000630258006002582DE9F84F48
:100F70004FF0000B0446E54E0D46CDF800B05F463D
:100F800090F85000DFF888A3012808D04FF001093D
:100F900084F85090206805F021FC18B169E1022026
:100FA000BDE8F88F21682868CA69030328D090FA41
:100FB000A0F0B0FA80F000BF00F01F0309FA03F0C0
:100FC0000243CA61D5E900124FF00C0C20681F23C0
:100FD000C1F384610CEA921C02F01F02604493404A
:100FE0009140026B9A430A430263206805F0F6FBC6
:100FF0008046206805F0EEFB58EA000003D07FE051
:10100000C0F38460D8E72068AA68296805F0F6FB79
:10101000C0490968B9EB117F06D121686869C968C0
:10102000C1F38201490008E02068C168C906C168AF
:101030006869F5D501F0100149088840296904293B
:101040002ED022682B6802EB810103F0F8420B6E70
:10105000024303F0004010430866697E2268286955
:10106000012917D05FF0000102EB8000026E22F030
:1010700000420A430266287E21682A6901280CD0B2
:1010800000200B6902F01F02904023F4F04202435B
:101090000A6135E04FF00041E6E74FF40060F0E709
:1010A00020682978026E02F0F842B2EB816F03D11A
:1010B000016E21F00041016620682978426E02F03D
:1010C000F842B2EB816F03D1416E21F000414166DD
:1010D00020682978826E02F0F842B2EB816F03D16A
:1010E000816E21F00041816620682978C26E02F08D
:1010F000F842B2EB816F03D1C16E21F00041C166AD
:101100002068816811F0010F76D150F8C02F95F852
:101110000CC0814B29680CF0180C23FA0CF3C1F3B6
:1011200013080B4022EA08021A4302607B48E96870
:10113000814277D1286801031BD090FAA0F1B1FA5F
:1011400081F1491C01F01F0109294FEA003131D812
:10115000002911D090FAA0F1B1FA81F101F1010159
:1011600001F01F0109FA01F209D100BFC0F3846147
:1011700009E0C0F38461E4E7C0F38461EEE790FA2C
:10118000A0F1B1FA81F101F1010101F01F0142EA80
:10119000816102D1C0F3846003E090FAA0F0B0FA5C
:1011A00080F000F1010000F01F0000EB400041EA78
:1011B000005133E000290ED090FAA0F1B1FA81F18C
:1011C00001F1010101F01F0109FA01F206D100BF8E
:1011D000C0F3846106E0C0F38461F1E790FAA0F106
:1011E000B1FA81F101F1010101F01F0142EA8161CF
:1011F00003D1C0F3846004E040E090FAA0F0B0FABC
:1012000080F0474A00F1010000F01F0000EB4000B1
:1012100002EB005041EA000141F00071AA68206829
:1012200005F0ECFAD5F800C0BCF1000F26DA3D4B12
:1012300020683D49DFF8F490984201D0B04201D1D6
:101240000A4600E04A469268984202F0E07201D0F5
:10125000B04209D19D68D6F8088005F0010508F074
:10126000010845EA080503E0DAF8085005F0010531
:1012700045B1606D012740F020006065384684F874
:1012800050B08DE62A4DAC451CD115021AD45045FC
:10129000F4D1984202D0B04200D049468B6842F463
:1012A000000023F0E07202438A6023492148096864
:1012B000B1FBF0F04000801C00E0401E00900028D0
:1012C000FBD1DBE71D4DAC450CD1D5010AD450450F
:1012D000D4D1984202D0B04200D049468B6842F047
:1012E00080700EE0164DAC45C8D15502C6D45045AD
:1012F000C4D1984202D0B04200D049468B6842F433
:10130000800023F0E07202438A60B7E700210240C8
:10131000006002580010005CFFFF0F000000FF4754
:10132000000020FE0020024000230240006302581B
:10133000000084CB400D030094430024000052C7FA
:101340000000B8CF00680349884202D10249012059
:101350000880704700200240000000247047000011
:101360002DE9F05F0446006806684568DFF8708282
:10137000DFF870B2DFF87092404501D0484501D1E6
:10138000584600E09948806800F01F07B0070ED566
:10139000A8070CD5606DC00603D4606D40F40060F2
:1013A00060652046FFF749FD21680220086070074C
:1013B00001D5680703D4300737D5280735D5606DC8
:1013C000C00603D4606D40F400706065206805F0CD
:1013D0000DFA20B32068484501D1424600E002469C
:1013E000824208D03FB1052F05D0092F03D04845D0
:1013F00003D1414602E0C16801E00146C9688904A1
:101400000DD4016809070AD505F0E8F958B3606DF5
:1014100040F010006065A06D40F00100A06520461E
:10142000FFF790FF21680C200860B00601D5A806E0
:1014300003D4700658D5680656D5606DC00603D42F
:10144000606D40F4005060652068C16C11F4C07F8D
:101450001AD000218A4605F0C9F90246206848459D
:1014600014D1434613E02068416821F00C0141602B
:10147000606D20F480706065606DC004CFD4606DD5
:1014800040F001006065CAE70121E3E703468342BB
:1014900008D03FB1062F05D0072F03D0484503D110
:1014A000414602E0C16801E00146C968BAF1000F97
:1014B00014D08B0102D58AB18A040FD40268520677
:1014C0000CD589020AD405F085F9E8B3606D40F0C7
:1014D00010006065A06D40F00100A0652046FFF798
:1014E000ADFC21686020086030060BD5280609D5C0
:1014F000606D40F480306065204600F08DF9216811
:1015000080200860F0050CD5E8050AD5606D40F430
:10151000003060652046FFF793FC21684FF480702F
:101520000860B0050CD5A8050AD5606D40F4802090
:1015300060652046FFF785FC21684FF40070086065
:10154000F00631D5E80600E00AE02DD5206BE8B1C1
:101550002068EFB3404501D0484512D1584611E00C
:101560002068416821F060014160606D20F4805086
:101570006065606DC005B1D4606D40F001006065CC
:10158000ACE71A48806800F4404050B1606D40F408
:1015900080606065A06D40F00200A0652046FFF706
:1015A000DDFE216810200860700517D5680515D587
:1015B000616D4FF4806041F480416165A16D41F03F
:1015C0000801A165216808602046BDE8F05F00E0E1
:1015D00001E0FFF734BCC0688007D6E7BDE8F09FA4
:1015E0000020024000230240002102400063025814
:1015F000F8B54FF0000604003546009602D0606D45
:1016000010B107E00120F8BD204600F007F9A665FB
:1016100084F8506020688168C1F3407119B1816815
:10162000704A1140816020688168C1F3007181B9FE
:1016300081686D4A114041F0805181606C496B486E
:101640000968B1FBF0F0401C00E0401E009000284B
:10165000FBD120688168C1F3007141B9616D01253A
:1016600041F010016165A16D41F00101A16505F036
:10167000B5F8616DC90600D420B1606D012540F058
:10168000100093E0606D20F4807040F0020060650F
:101690002068816811F0010F1FD1564A564B9042C5
:1016A00001D0984207D191689E6801F0010106F0CF
:1016B0000106314303E05149896801F0010161B934
:1016C000904201D0984201D14D4800E04D488268D7
:1016D000616822F47C120A43826001F0D3FB41F27C
:1016E0000301884202D9A06810280CD0617D227FB6
:1016F000A368206B490341EA024118430843217F54
:1017000001290CD010E0607D227F216B400340EA6C
:10171000024241F01000104340F00C00EFE7218C32
:10172000394A02EB41410843616A29B1A26A01F4D6
:101730007871014342EA01002168344BCA681A40BB
:101740000243CA60206805F049F80646206805F0A3
:1017500041F830431DD1216844F20303267DE26A3B
:10176000C86842EA863298431043C86094F838004B
:1017700001281ED02068016921F001010161206863
:10178000626B016921F07041114301612046FEF74F
:1017900051FEE068012820681CD0016B21F00F0188
:1017A0000163606D20F0020040F001006065284692
:1017B000F8BD2068A28F164FD4E9101C154E07EB18
:1017C0000247A36C026941EA0C013B4332401943D2
:1017D0001143D3E7A269016B521E21F00F0111439F
:1017E000DEE70000C0FFFF5FC0FFFF7F400D03008A
:1017F000944300240020024000210240006002586F
:1018000000230240006302580000FEFF03C0F0FF07
:101810000100FFFF1EF800FC7047000010B5B6B0D5
:10182000044614212FA8FEF7ACFDBC216846FEF744
:10183000A8FD1B492068884230D14FF40020811058
:1018400028910090684602F077F908B1FFF7F3FAA3
:101850001448016841F020010160006800F0200098
:10186000349010480830016841F0200101600068A0
:101870002FAB032100F02000349000224FF40060D1
:1018800083E8070008482FA901F0E0F900220421AD
:10189000122001F0C5FD122001F0B4FD36B010BDDC
:1018A00000200240D8440258001402582DE9F84F95
:1018B000044601F0EDFA00903CB194F8350002289E
:1018C00006D0802161650020E4E00120BDE8F88FAA
:1018D000C74DC74EC649183520683036DFF8148327
:1018E000DFF814938842DFF814A3DFF814B32ED086
:1018F000A8422CD0B0422AD0404528D0484526D016
:10190000504524D0584522D0BD4A183290421ED0AE
:10191000BC4A90421BD0BB4A1832904217D0B94AF9
:101920003032904213D0B74A483290420FD0B54A75
:10193000603290420BD0B34A7832904207D0B14A1D
:101940009032904203D0AF4AA832904209D1026847
:1019500022F01E0202602068426922F08002426189
:1019600003E0026822F00E02026027688F423846C8
:101970004DD0A8424BD0B04249D0404547D0484511
:1019800045D0504543D0584541D09D4A18329042E9
:101990003DD09C4A90423AD09A4A1832904236D072
:1019A000984A3032904232D0964A483290422ED0F5
:1019B000944A603290422AD0924A7832904226D09D
:1019C000904A9032904222D08E4AA83290421ED045
:1019D0008D4A90421BD08C4A1432904217D08A4ACA
:1019E0002832904213D0884A3C3290420FD0864A27
:1019F000503290420BD0844A6432904207D0824ADF
:101A00007832904203D0804A8C32974204D1206EC3
:101A1000026822F48072026075492068884228D0EA
:101A2000A84226D0B04224D0404522D0484520D0FC
:101A300050451ED058451CD071491831884218D0E5
:101A40007049884215D06F491831884211D06D49CC
:101A5000303188420DD06B494831884209D06949FC
:101A60006031884205D067497831884201D06549A4
:101A70009031016821F0010101600EE001F008FAE7
:101A80000099401A052808D9202262650321002008
:101A900084F8351084F8340017E73868C007EDD1B2
:101AA000534A0121206890422ED0A8422CD0B04247
:101AB0002AD0404528D0484526D0504524D0584506
:101AC00022D04F4B183398421ED04E4B98421BD019
:101AD0004C4B1833984217D04A4B3033984213D0AE
:101AE000484B483398420FD0464B603398420BD056
:101AF000444B7833984207D0424B9033984203D0FE
:101B0000404BA833984208D194F85C703F23A06DF5
:101B100007F01F07BB40836007E094F85C30A06DBE
:101B200003F01F0301FA03F34360206890424DD095
:101B3000A8424BD0B04249D0404547D0484545D057
:101B4000504543D0584541D02D4A183290423DD09F
:101B50002C4A90423AD02B4A1832904236D0294A29
:101B60003032904232D0274A483290422ED0254A15
:101B7000603290422AD0234A7832904226D0214ABD
:101B80009032904222D01F4AA83290421ED01E4A64
:101B900090421BD01C4A1432904217D01A4A283265
:101BA000904213D0184A3C3290420FD0164A50321D
:101BB00090420BD0144A6432904207D0124A7832D5
:101BC000904203D0104A8C3290420BD1D4E91902D2
:101BD0004260E06E30B1026822F480720260D4E9A3
:101BE0001C024260002084F8351084F834006DE651
:101BF000100002405800024070000240880002407D
:101C0000A000024010040240085402582DE9F05F81
:101C100028B190F83510022904D0802141650120B7
:101C2000BDE8F09F904C904B0168183C18338E4AE9
:101C3000DFF83C92A1428D4CDFF838E28E4FDFF89E
:101C40003CB2DFF83CA28F4D8F4E31D091422FD065
:101C500099422DD0A1422BD0494529D0714527D09A
:101C6000B94225D0DFF810C20CF1180C61451FD025
:101C7000DFF808C2ACF1600C614519D0DFF8FCC197
:101C8000ACF1480C614513D0DFF8F0C1ACF1300C79
:101C900061450DD0DFF8E4C1ACF1180C614507D007
:101CA000594505D0514503D0A94201D0B1422CD1AC
:101CB000DFF8B4C14FF0040880F83580ACF1180C9F
:101CC00061451DD091421BD0994219D0A14217D035
:101CD000494515D0714513D0B94211D06648183026
:101CE00081420DD065486038814209D06348483848
:101CF000814205D061483038814201D05F481838B0
:101D0000086820F001000860ABE0D1F800C02CF0BA
:101D10000E08DFF854C1C1F80080ACF1180C01685E
:101D2000614527D0914225D0994223D0A14221D0AC
:101D300049451FD071451DD0B9421BD0DFF838C1CD
:101D40000CF1180C614515D0DFF830C1ACF1600C16
:101D500061450FD0DFF824C1ACF1480C614509D0D2
:101D6000DFF818C1ACF1300C614503D0DFF80CC1CD
:101D7000ACF1180CD1F800C02CF0010CC1F800C077
:101D8000DFF8E4804FF0010C0168A8F11808414524
:101D900046D0914244D0994242D0A14240D04945D8
:101DA0003ED071453CD0B9423AD0334A18329142C4
:101DB00036D0324A603A914232D0304A483A914263
:101DC0002ED02E4A303A91422AD02C4A183A9142CB
:101DD00026D0594524D0514522D0A94220D0B14225
:101DE0001ED02A4A91421BD0284A1432914217D061
:101DF000264A2832914213D0244A3C3291420FD0D5
:101E0000224A503291420BD0204A6432914207D08C
:101E10001E4A7832914203D01C4A8C32914218D12A
:101E2000016E0A6822F480720A6090F85C20816D6D
:101E300002F01F020CFA02F24A60D0E919124A605D
:101E4000C16E31B10A6822F480720A60D0E91C12B6
:101E50004A600022016D80F835C080F8342001B15D
:101E600088470020DCE600002800024058000240BD
:101E70007000024088000240A0000240700402404E
:101E800088040240A0040240B804024008540258EA
:101E90002DE9FC5F0446F74E0020DFF8D883009060
:101EA0004FF41652F44808F11808A56DDFF8C493F2
:101EB000DFF8C0A3016809F1300920680AF1480A77
:101EC000B1FBF2F1B04201912F68D5F800C0DFF804
:101ED000ACB335D04146884232D0484530D0504529
:101EE0002ED058452CD0E5491831884228D0E349F6
:101EF0003031884224D0E1494831884220D0E0493D
:101F000088421DD0DE491831884219D0DC49303171
:101F1000884215D0DA494831884211D0DFF860E3B1
:101F20000EF1600E70450BD0D54A7832904207D042
:101F3000D34B9033984203D0D149A83188427DD108
:101F400094F85C20082102F01F0201FA02F23A42E2
:101F50004AD0B04232D0404530D048452ED05045CE
:101F60002CD058452AD0C54A1832904226D0C34AB0
:101F70003032904222D0C14A483290421ED0C04AEC
:101F800090421BD0BE4A1832904217D0BC4A303221
:101F9000904213D0BA4A483290420FD0B84A6032C9
:101FA00090420BD0B64A7832904207D0B44A903271
:101FB000904203D0B24AA832904203D1026802F0A4
:101FC000040202E0026802F008026AB1026822F02C
:101FD0000402026094F85C0000F01F008140A960D8
:101FE000606D40F00100606594F85C00012100F034
:101FF0001F008140394240D02068B04234D0404573
:1020000032D0484530D050452ED058452CD09B4A30
:102010001832904228D0994A3032904224D0974AC0
:102020004832904220D0964A90421DD0944A1832AD
:10203000904219D0924A3032904200E0AFE113D082
:102040008F4A483290420FD08D4A603290420BD076
:102050008B4A7832904207D0894A9032904203D01E
:10206000874AA83290427DD1406910F0800F04D099
:10207000A960606D40F00200606594F85C00042186
:1020800000F01F00814039423ED02068B04232D07B
:10209000404530D048452ED050452CD058452AD008
:1020A000764A1832904226D0744A3032904222D07A
:1020B000724A483290421ED0714A90421BD0704AF8
:1020C0001832904217D06E4A3032904213D06C4A88
:1020D000483290420FD06A4A603290420BD0684A30
:1020E0007832904207D0664A9032904203D0644AD8
:1020F000A83290424ED1006810F0020F04D0A960BF
:10210000606D40F00400606594F85C00102100F000
:102110001F008140394258D02068B04234D0404539
:1021200032D0484530D050452ED058452CD0534A57
:102130001832904228D0514A3032904224D04F4A2F
:102140004832904220D04E4A90421DD04C4A18321C
:10215000904219D04A4A3032904215D0484A48320B
:10216000904200E014E00FD0454A603290420BD01C
:10217000434A7832904207D0414A9032904203D08D
:102180003F4AA832904207D1006800F0080006E0FC
:10219000006872E70068B7E7006800F00400A0B1CB
:1021A000A96020680168490304D50068000308D5C8
:1021B000A16C07E00168C90503D4016821F008019A
:1021C0000160216C09B12046884794F85C00202109
:1021D00000F01F008140394279D02068B04232D0EF
:1021E000404530D048452ED050452CD058452AD0B7
:1021F000224A1832904226D0204A3032904222D0D1
:102200001E4A483290421ED01D4A90421BD01C4AA2
:102210001832904217D01A4A3032904213D0184ADE
:10222000483290420FD0164A603290420BD0144A86
:102230007832904207D0124A9032904203D0104A2E
:10224000A832904203D1006800F0100002E000685C
:1022500000F00200B0B3A96094F8350004282068AB
:1022600001680FD049037ED5006800032BD4616C50
:102270002AE0000010000240944300247000024055
:102280001004024021F0160101602068416921F02C
:1022900080014161206C08B9A06C20B12068016800
:1022A00021F00801016094F85C303F21012003F027
:1022B0001F0300229940A96084F8350084F8342077
:1022C000216D65E003E0E16B09B120468847606D50
:1022D00000287DD0606DC00759D02068042184F8A3
:1022E0003510B0422BD0404529D0484527D0504525
:1022F00025D0584523D09D49884220D09B4918318C
:1023000088421CD099493031884218D09849884277
:1023100015D097491831884211D0954930318842FB
:102320000DD093494831884209D0914960318842A3
:1023300005D08F497831884201D08D4990310168AC
:1023400021F00101016020680099019A491C009167
:10235000914202D80168C907F6D10068C00710D0C1
:1023600003200FE0FFE70168C905ACD40368012131
:10237000002223F01003036084F8351084F8342021
:10238000A1E7012084F83500002084F83400E16CD6
:1023900000291DD002B02046BDE8F05F084775490E
:1023A00088421DD073491431884219D071492831AF
:1023B000884215D06F493C31884211D06D49503167
:1023C00088420DD06B496431884209D0694900E0E8
:1023D00084E07831884203D066498C3188427DD1CF
:1023E00094F85C800427016808F01F0807FA08F7D2
:1023F00017EA0C0F009746D04F0744D500980F04FA
:10240000686003D5C8033CD4A16CC1E7880638D402
:102410002068B0422DD055496039884229D04845BE
:1024200027D0504525D0584523D05049884220D048
:102430004E49183188421CD04C493031884218D05E
:102440004B49884215D04A491831884211D0484931
:10245000303188420DD046494831884209D0704514
:1024600007D0904205D0984203D04149A831884214
:1024700003D1016821F0080102E0016821F00401A4
:102480000160216C84E7022707FA08F717EA0C0FAE
:1024900000974ED08F074CD500980F04686003D585
:1024A000C80344D4616C73E7880640D42068B04206
:1024B0002FD02E49603988422BD0484529D050452D
:1024C00027D0584525D02949884222D0274918319C
:1024D00088421ED025493031884200E044E018D0BF
:1024E0002349884215D022491831884211D0204909
:1024F000303188420DD01E494831884209D070459C
:1025000007D0904205D0984203D01949A83188429B
:1025100003D1016821F0140102E0016821F00A01F1
:102520000160012184F83510002084F83400E16B4B
:102530002EE7082202FA08F212EA0C0F14D009075B
:1025400012D5016821F00E01016094F85C100120A1
:10255000002201F01F0100FA01F16960606584F852
:10256000350084F8342012E7BDE8FC9F8800024063
:1025700010040240085402582DE9F05F044600F0B0
:1025800087FC002C07467DD0E34E022120684FF0E7
:102590000308DFF888934FF00005DFF884A3B0420A
:1025A000DFF880B334D0DC4A1832904230D048454E
:1025B0002ED050452CD058452AD0DA4A18329042B5
:1025C00026D0D84A3032904222D0D64A4832904261
:1025D0001ED0D54A90421BD0D34A1832904217D011
:1025E000D14A3032904213D0CF4A483290420FD075
:1025F000CD4A603290420BD0CB4A7832904207D01D
:10260000C94A9032904203D0C74AA83290427DD145
:1026100084F83510B04284F834502ED0BE491831B9
:1026200088422AD0484528D0504526D0584524D045
:10263000BC491831884220D0BA49303188421CD078
:10264000B8494831884218D0B749884215D0B649B0
:102650001831884211D0B449303188420DD0B24986
:102660004831884209D0B0496031884205D0AE492E
:102670007831884201D0AC499031016821F00101E4
:10268000016008E027E100BF00F002FCC01B052844
:1026900001D920211CE120680068C007F4D104F1B1
:1026A00008002168D4E9053C8E4685C809681043B6
:1026B000D4E907281F43636A38439C4F40EA0C0063
:1026C0001043394040EA0800042B40EA010003D1DE
:1026D000D4E90B1211430843954909686FF30F01C0
:1026E000B1F1005F0FD36168A1F12902052A08D971
:1026F000163A032A05D9083A012A02D94F39032983
:1027000001D840F48010CEF8000000E023E02068FB
:10271000676A4069042F20F0070047EA00070DD1DF
:10272000D4E90A01074349B12046FEF73FFA28B130
:1027300040206065012184F83510CCE020684761B5
:102740002046FEF751F994F85C203F2102F01F0269
:102750009140816054E0774A90421BD0754B14330E
:10276000984217D0734B2833984213D0714B3C33A7
:1027700098420FD06F4B503398420BD06D4B64335F
:10278000984207D06B4B7833984203D0694B8C3317
:1027900098427DD184F8351084F83450664B016836
:1027A000A26801EA030E402A73D0802A72D0002268
:1027B000D4E90378D4E9053142EAD70242EAD808DD
:1027C0005C4AD4E9077C48EAD30848EAD10141EAE7
:1027D000D701524241EA1C11142341EA0E01016063
:1027E00020681044B0FBF3F08000E0652046FEF75F
:1027F000FBF894F85C20012102F01F029140416037
:102800002068B04257D044491831884253D04845D7
:1028100051D050454FD058454DD04249183188428B
:1028200049D040493031884245D03E4948318842FC
:1028300041D03D4988423ED03B49183188423AD088
:1028400039493031884236D037494831884232D010
:102850003549603188422ED03349783188422AD0B8
:1028600031499031884226D02F49A831884222D060
:10287000304988421FD02F49143188421BD02D493E
:102880002831884217D02B493C31884213D002E0CE
:102890001DE017E018E02749503188420BD0254948
:1028A0006431884207D023497831884203D02149D6
:1028B0008C31884229D12046FEF7F0F8A0688028A4
:1028C0000CD00CE0102273E74FF4804270E74021F7
:1028D000616584F835800120BDE8F09F6560216E58
:1028E00020790860D4E9190141606068401E07281A
:1028F00008D82046FEF720F9E06E0560D4E91C01F7
:10290000416002E0E566256765670120656584F83A
:1029100035000020E0E700001000024040000240C7
:102920005800024070000240100402403F8010FE38
:102930000010005C085402580F00FEFF2DE9F84F0C
:1029400004008C464FF00000009014D094F834003E
:10295000012812D094F835500120002184F8340069
:10296000012D0CD0C00260650120009084F8341065
:102970000098BDE8F88F0120FBE70220F9E78C4DB5
:102980000226206884F83560A8428A4D61658A4E27
:102990008A4FDFF82C82DFF82C92DFF82CA2DFF8C8
:1029A0002CB226D0A84224D0B04222D0B84220D0A7
:1029B00040451ED048451CD050451AD0584518D027
:1029C0008349884215D082491831884211D0804904
:1029D000303188420DD07E494831884209D07C4947
:1029E0006031884205D07A497831884201D07849EF
:1029F0009031016821F00101016061462046FEF737
:102A0000FFF86B49206888422CD0A8422AD0B042F7
:102A100028D0B84226D0404524D0484522D0504541
:102A200020D058451ED06A4A90421BD0684A1832BE
:102A3000904217D0664A3032904213D0644A4832EE
:102A400090420FD0624A603290420BD0604A783296
:102A5000904207D05E4A9032904203D05C4AA8323E
:102A600090420CD1026822F01E0242F0160202606F
:102A7000206C88B12068026842F008020BE002680E
:102A800022F00E0242F00A020260206C20B120689F
:102A9000026842F004020260206888424BD0A842DB
:102AA00049D0B04247D0B84245D0404543D04845D0
:102AB00041D050453FD058453DD0454A90423AD04C
:102AC000434A1832904236D0414A3032904232D096
:102AD0003F4A483290422ED03D4A603290422AD03E
:102AE0003B4A7832904226D0394A9032904222D0E6
:102AF000374AA83290421ED0364A90421BD0354AFF
:102B00001432904217D0334A2832904213D0314ABF
:102B10003C3290420FD02F4A503290420BD02D4A77
:102B20006432904207D02B4A7832904203D0294A2F
:102B30008C3290420DD1206E0268D20303D5026818
:102B400042F480720260E06E18B1026842F4807252
:102B500002602068884226D0A84224D0B04222D009
:102B6000B84220D040451ED048451CD050451AD010
:102B7000584518D01649884215D015491831884251
:102B800011D01349303188420DD011494831884263
:102B900009D00F496031884205D00D49783188420B
:102BA00001D00B499031016841F001010160DFE67D
:102BB000100002402800024040000240580002403D
:102BC0007000024088000240A0000240B8000240AD
:102BD000100402400854025870B5044600F058F939
:102BE0000546601C02D004480078044400F050F907
:102BF000401BA042FAD370BD88430024B0F5005FAB
:102C00004FF0010105D0022805D008280AD1064856
:102C100007E0064805E04FF0B0420220C2F8880005
:102C2000034801707047000073430024714300247F
:102C3000724300244FF0B04110B5D1F88820024211
:102C400003D0C1F88800FFF7D9FF10BD2DE9F84F78
:102C500003247D4D00234FF001094FF0B04B4FF09E
:102C60000F0AE9E009FA03F73A4076D00E7906F048
:102C70000306012E01D0022E18D1D0F808C04FEA69
:102C8000430ECE6804FA0EF82CEA080C06FA0EF68B
:102C900046EA0C068660D0F804C00E792CEA070CD0
:102CA000C6F300169E4046EA0C0646600E79F643CF
:102CB000B6070BD0C6684FEA43088F6804FA08FCD1
:102CC00026EA0C0607FA08F73743C7600E7906F0C4
:102CD0000306022E12D1DE080F694FEA437C00EB97
:102CE0008606B646366A4FEADC6C0AFA0CF807FA32
:102CF0000CF726EA08063743CEF820700F790668ED
:102D00004FEA430807F0030704FA08FC07FA08F73C
:102D100026EA0C06374307604E6816F4403F1CD085
:102D20004A4E376847F00207376036689F0706F05B
:102D30000206009623F0030606F1B046B6463F0FA2
:102D4000D6F80864DFF808810AFA07FC404526EA4D
:102D50000C0603D14FF0000C41E06CE0DFF8F4C04A
:102D6000604502D14FF0010C39E0DFF8ECC060455E
:102D700002D14FF0020C32E0DFF8E0C0604502D132
:102D80004FF0030C2BE0DFF8D8C0604502D14FF0C4
:102D9000040C24E0DFF8CCC0604502D14FF0050CF4
:102DA0001DE0DFF8C4C0604502D14FF0060C16E00C
:102DB000DFF8B8C0604502D14FF0070C0FE0DFF834
:102DC000B0C0604502D14FF0080C08E0DFF8A4C0A5
:102DD000604502D14FF0090C01E04FF00A0C0CFAEB
:102DE00007FC4CEA060CCEF808C44F68DBF800601C
:102DF000FF0226EA020600D516435F46CBF80060C4
:102E0000D1F804C0DBF804605FEA8C2C26EA0206E5
:102E100000D516437E606E684F6826EA0206BF033F
:102E200000D516436E602E684F6826EA0206FF033F
:102E300000D516432E605B1C0A6832FA03F67FF455
:102E400011AFBDE8F88F000080000058F44402582C
:102E5000000002580004025800080258000C0258F2
:102E6000001002580014025800180258001C0258A2
:102E700000200258002402580AB1816170470904F9
:102E8000FBE7000001480068000C70470010005C80
:102E900001488068704700008843002430B590F8EE
:102EA0004120202A24D190F84020012A20D001235B
:102EB00080F84030242280F841202023002402683A
:102EC000156825F0010515600268156825F4805520
:102ED0001560026815680D43156001680A6842F0C4
:102EE00001020A6080F8413080F84040002030BD87
:102EF000022030BD30B590F84120202A22D190F830
:102F00004020012A1ED0012380F84030242280F87E
:102F10004120202400250268136823F00103136078
:102F20000268136823F4706343EA012111600168A9
:102F30000A6842F001020A6080F8414080F840507F
:102F4000002030BD022030BD70B5040004D094F8DC
:102F50004100002510B106E0012070BD204684F834
:102F6000405000F071F9242084F841002068016885
:102F700021F001010160D4E9001020F070600861C7
:102F80002068816821F400418160E068216801289F
:102F9000A06806D040F404408860E068022803D0AE
:102FA00006E040F40040F7E721684FF40060486015
:102FB00020212068114A4368134343602068C26897
:102FC00022F40042C26054F8106B0DCC104340EA6A
:102FD0000320F06054F81C3CD4E900021043186050
:102FE00054F81C0D026842F001020260656484F826
:102FF0004110256384F84250002070BD008000021B
:103000002DE9F84F044690F841001F469046DDF840
:1030100028A08B4620287ED194F8400001287AD041
:10302000012084F84000FFF733FF012206461923F0
:103030000090D103204603F05DFAE0BB0025222179
:1030400084F84110102084F8420065646785618D22
:10305000FF2732484FF00079C4F82480FF294FF051
:103060008078656303D927853A46009039E0618D01
:10307000218500903AE05946204603F023FA13E0F8
:1030800003F066FAB8B92068616A406A0870606A3D
:10309000401C6062208D401E81B22185608D401EE3
:1030A0006085608D00B169B1608D3246514600285F
:1030B0002046E5D100E002E003F098FAD0B101200B
:1030C000BDE8F88F0022534680212046009603F089
:1030D00011FA0028F3D1608DFF2804D927853A46DC
:1030E00000954346C7E7608D208500954B4694F8D0
:1030F0002820C0E720682021094AC1612068436870
:103100001340436084F8411084F84250002084F852
:103110004050D5E7FFE70220D2E7000000240080FE
:1031200000E800FE2DE9F84F044690F841001F46E4
:103130009046DDF828A08B4620287ED194F84000E8
:1031400001287AD0012084F84000FFF7A1FE012277
:10315000064619230090D103204603F0CBF9E0BBCB
:103160000025212184F84110102084F84200656474
:103170006785618DFF2732484FF00079C4F82480BD
:10318000FF294FF08078656303D927853A46009080
:1031900039E0618D218500903AE05946204603F0E0
:1031A00091F913E003F049FAB8B9606A2168007830
:1031B0008862606A401C6062608D401E6085208D60
:1031C000401E80B22085618D01B168B1608D3246AC
:1031D000514600282046E5D100E002E003F006FA5F
:1031E000D0B10120BDE8F88F00225346802120464F
:1031F000009603F07FF90028F3D1608DFF2804D9F1
:1032000027853A4600954346C7E7608D208500959F
:103210004B4694F82820C0E720682021094AC16164
:10322000206843681340436084F8411084F842509A
:10323000002084F84050D5E7FFE70220D2E70000E5
:103240000020008000E800FE10B5B6B0044614214E
:103250002FA8FDF796F8BC216846FDF792F81749AC
:103260002068884228D108200090002468462094D5
:1032700000F062FC08B1FDF7DEFD1148016841F085
:103280002001016000682FAB122100F02000349073
:103290000320042283E813000A482FA9CDE9324213
:1032A000FFF7D4FC06480830016841F48001016052
:1032B000006800F48000349036B010BD0058004023
:1032C000E04402580014025870B5040011D022687E
:1032D0004CF6CC4145F25550116021680860D4E9A4
:1032E000000141602168A0688860FFF7D1FD0546B4
:1032F0000DE0012070BD00BFFFF7CAFD401B312863
:1033000005D92068C068400701D0032070BD20683F
:10331000C0684007F0D12068E16802698A4201D0A4
:10332000016102E04AF6AA210160002070BD016837
:103330004AF6AA2008600020704700000248816811
:10334000027811448160704788430024032010B53F
:1033500000F086F801F0CEF90F4A1049146813689E
:10336000C4F3032203F00F038A5CC95C02F01F025E
:1033700001F01F01D0400A4A20FA01F11160094909
:1033800008600F2000F010F808B1012010BD00F017
:103390002BF8002010BD000018440258E0800008FF
:1033A000984300249443002470B50D4D04462878BA
:1033B000A0B14FF47A71B1FBF0F00A490968B1FB92
:1033C000F0F002F02AF948B9102C07D20022214669
:1033D000501E00F025F800206C6070BD012070BD0B
:1033E0008843002494430024054808B5016841F04F
:1033F00002010160006800F00200009008BD0000BA
:10340000F4440258002809DB410900F01F0289003A
:10341000012001F1E0219040C1F800017047000057
:103420000E4BF0B41B680D46C3F30223C3F107062D
:10343000042E00D90426191D072901D2002300E01B
:10344000DB1E012404FA06F19C40491E2940641E3B
:10345000994014402143F0BC04F0DBBA0CED00E0CD
:10346000064900F0070210B54FF6FF040868044B48
:10347000204040EA02201843086010BD0CED00E037
:103480000000FA05134970B50A68D243520705D502
:10349000096801F00701814213D118E00A6822F09F
:1034A000070202430A60FFF7F3FC0A4D4FF47A76F5
:1034B0000446083D07E000BFFFF7EAFC001BB042EE
:1034C00001D9012070BD2868C0438004F4D40020D5
:1034D00070BD00000C48025810B501F0C5F8054950
:1034E0000968054AC1F30211515C01F01F01C8408F
:1034F00010BD000020440258E08000084A4930B561
:10350000494C0B1D0A680C3409681D68246802F0D8
:10351000030305F00102C1F30511C4F3CC04002933
:1035200014FB02F200EE102AF8EE400A76D0414A6F
:103530009FED3E1ADFED3E1AB7EE000A23B1012BD4
:103540005AD0022B18D15CE0374C283C23689B06EC
:1035500012D5394B246801EE901A1168C4F3C104E6
:10356000F8EE612AE34001EE903AC1F30801F8EE6B
:10357000611A81EEA22A07E002EE101A1168F8EE35
:10358000422A81EEA22A45E001EE901A1168F8EE77
:10359000611A40EE811A71EE800A62EE200AC1F3D0
:1035A000462101EE101AB8EE411A31EE001AC0EEB3
:1035B000811ABCEEE11A80ED001A1168C1F30641D0
:1035C00001EE101AB8EE411A31EE001AC0EE811A5F
:1035D000BCEEE11A80ED011A1168C1F3066101EE3B
:1035E000101AB8EE411A31EE000A80EE801ABCEED5
:1035F000C10A80ED020A30BD01EE901ADFED0F2AFC
:1036000003E001EE901ADFED0E2A1168F8EE611A60
:1036100082EEA12AC1F30801B6E7FFE700210160AD
:103620004160816030BD000028440258000000392C
:103630000024744C304402580090D0030024744A93
:1036400020BCBE4B494930B5484C0B1D0A681434A8
:1036500009681D68246802F00303C5F30012C1F372
:103660000531C4F3CC04002914FB02F200EE102A49
:10367000F8EE400A75D03F4A9FED3D1AB7EE000ABA
:103680006BB1DFED3D1A012B01D0022B64D002EEAD
:10369000101A1168F8EE422A81EEA22A21E0334C7A
:1036A000283C23689B0612D5344B246801EE901AFF
:1036B0001168C4F3C104F8EE612AE34001EE903AC8
:1036C000C1F30801F8EE611A81EEA22A0BE001EEC7
:1036D000901ADFED2B2A00BFF8EE611A116882EE16
:1036E000A12AC1F3080101EE901A1168F8EE611ADF
:1036F00040EE811A71EE800A62EE200AC1F3462183
:1037000001EE101AB8EE411A31EE001AC0EE811A1D
:10371000BCEEE11A80ED001A1168C1F3064101EE1A
:10372000101AB8EE411A31EE001AC0EE811ABCEE42
:10373000E11A80ED011A1168C1F3066101EE101A59
:10374000B8EE411A31EE000A80EE801ABCEEC10AD2
:1037500080ED020A30BD04E001EE901ADFED092A87
:10376000BAE70021016041608160F3E72844025814
:1037700000000039384402580024744A0090D003F5
:103780000024744C20BCBE4B494930B5484C0B1D3D
:103790000A681C3409681D68246802F00303C5F335
:1037A0000022C1F30551C4F3CC04002914FB02F23A
:1037B00000EE102AF8EE400A75D03F4A9FED3D1A00
:1037C000B7EE000A6BB1DFED3D1A012B01D0022BE1
:1037D00064D002EE101A1168F8EE422A81EEA22A95
:1037E00021E0334C283C23689B0612D5344B2468D7
:1037F00001EE901A1168C4F3C104F8EE612AE340A7
:1038000001EE903AC1F30801F8EE611A81EEA22AA6
:103810000BE001EE901ADFED2B2A00BFF8EE611AE3
:10382000116882EEA12AC1F3080101EE901A116815
:10383000F8EE611A40EE811A71EE800A62EE200AFB
:10384000C1F3462101EE101AB8EE411A31EE001A0A
:10385000C0EE811ABCEEE11A80ED001A1168C1F3C6
:10386000064101EE101AB8EE411A31EE001AC0EE10
:10387000811ABCEEE11A80ED011A1168C1F30661EC
:1038800001EE101AB8EE411A31EE000A80EE801AED
:10389000BCEEC10A80ED020A30BD04E001EE901AD0
:1038A000DFED092ABAE70021016041608160F3E79A
:1038B0002844025800000039404402580024744A49
:1038C0000090D0030024744C20BCBE4B2DE9F04F77
:1038D000944A4FF48079DFF848824845924B89B08A
:1038E000924EA8F1040592494FF080574FEA2214F6
:1038F0004FF0005C2ED1D8F8000000F0070005283A
:1039000024D2DFE800F09BB58425AA0003A8FFF7C6
:10391000F5FD049809B0BDE8F08F6846FFF792FE08
:103920000098F7E706A8FFF72FFF0698F2E7086868
:10393000C0F3C10022FA00F0ECE70A68D2057CD59A
:10394000B8427AD12046E5E71846E3E70020E1E7F0
:103950003046DFE7B0F5007F1AD0DFF8D891B0F538
:10396000806F26D0B0F5006F37D04FF4805A5045A5
:103970004FF4804B4FD1D8F8000000F4E040B0F590
:10398000005F44D03DDC002858D05045DED16FE0C8
:10399000D8F8000000F4E070802838D004DC00285B
:1039A0004CD04028D2D163E0C028D1D04845CDD1F9
:1039B00053E0D9F8000000F46000B0F5800F26D085
:1039C00004DCD8B3B0F5001FC0D151E0B0F5C00F92
:1039D000BED0B0F5000FB9D13FE0D9F8000000F03B
:1039E000E060B0F1007F12D004DC38B3B0F1807F2A
:1039F000ACD13DE0B0F1407FAAD0B0F1806FA5D14D
:103A00002BE0B0F5405FA3D058459FD125E0086872
:103A100080009BD586E7B0F5002F4FF4803612D09A
:103A2000B04237D1286810F4803075D0B0428DD1C3
:103A3000086800018AD5684601E025E06CE0FFF7E0
:103A400001FE029866E7D9F8000010F440300FD06C
:103A5000B04211D0B0F5003F98D128680D6800F051
:103A600040506D077FF569AF00287FF466AF5EE7D1
:103A700008680001CDD550E708688000C9D506A8C0
:103A8000FFF782FE089845E709688903C1D56045BC
:103A900088D159E758452BD1D9F8000000F0E04013
:103AA000B0F1405F1CD00CDC90B1B8422CD0604526
:103AB0008AD108688000ACD506A8FFF765FE079894
:103AC00028E7B0F1804F0FD0B0F1A04F90D11FE0A8
:103AD000FFF702FD1EE76846FFF7B4FD019819E7FE
:103AE0000868400795D522E70868C00591D529E701
:103AF000B0F5004F89D1D8F8000010F0405007D041
:103B0000B84209D0604592D108680001E3D41DE7AE
:103B100008688003FBD517E708688001F7D5F5E64C
:103B2000504402580090D00340787D010080BB00D3
:103B300000440258584402582DE9FC5F044650F8EE
:103B4000241B002500902E460801FE4FDFF8F88365
:103B50001DD5606E50B1B0F5801F0CD0B0F5001FC0
:103B60000ED0B0F5401F1DD001250FE0386840F49D
:103B70000030386016E00221201D03F053F803E006
:103B80000098022103F0DEF805000BD02E462088B5
:103B9000C00523D5606D05281ED2DFE800F00C11AA
:103BA000161B1B00626ED8F8001021F4401111435F
:103BB000C8F80010EBE7386840F40030386009E0DE
:103BC0000021201D03F02EF803E00098002103F0EF
:103BD000B9F805466DB100E001252E462088800524
:103BE00028D5A06D80281ED00CDC90B140280ED1C5
:103BF00014E0626DD8F8001021F007011143C8F8F5
:103C00000010EBE7C02813D0B0F5807F10D001255D
:103C10000FE0386840F40030386009E00021201DD2
:103C200003F000F803E00098002103F08BF805464C
:103C300095B12E462088DFF81093400509F1080958
:103C40002CD5D4F8A400B0F5800F20D00DDCA0B1A5
:103C5000B0F5001F0FD115E0A26DD8F8001021F4C7
:103C6000E0711143C8F80010E4E7B0F5C00F13D0BD
:103C7000B0F5000F10D001250FE0386840F4003097
:103C8000386009E00021201D02F0CCFF03E000981D
:103C9000002103F057F8054675B12E46208800052F
:103CA0002DD5D4F8A800B0F1007F21D00EDCA8B14A
:103CB000B0F1807F10D116E0D4F8A420D9F800101C
:103CC00021F460011143C9F80010E7E7B0F1407F2B
:103CD00013D0B0F1806F10D001250FE0386840F4A8
:103CE0000030386009E00021201D02F09BFF03E056
:103CF0000098002103F026F805466DB12E46206895
:103D000080011FD5A06CD8B110280FD0202812D068
:103D1000302815D0012514E0D4F8A820D9F80010D7
:103D200021F0E0611143C9F80010E8E7386840F479
:103D30000030386004E00221201D02F073FF0546C8
:103D40006DB12E462088C0042BD5E06DB0F5005F24
:103D500020D00DDCA0B1B0F5805F0FD115E07A481E
:103D6000A26C001F016821F0300111430160E9E7F6
:103D7000B0F5405F13D0B0F5804F10D001250FE0B3
:103D8000386840F40030386009E00021201D02F05E
:103D900049FF03E00098002102F0D4FF054685B1F9
:103DA0002E462088800429D5206EB0F5403F23D0D0
:103DB00010DC08B3B0F5803F14D0B0F5003F0FD150
:103DC00015E0E26DD8F8001021F4E0411143C8F885
:103DD0000010E6E7B0F5802F0ED0B0F5A02F0BD085
:103DE00001250AE00121201D02F01CFF03E00098DC
:103DF000012102F0A7FF05468DB12E462088400420
:103E00002AD5D4F8AC00B0F1405F23D010DC08B361
:103E1000B0F1805F14D0B0F1005F0FD115E0226ED9
:103E2000D8F8001021F4E0211143C8F80010E5E7AC
:103E3000B0F1804F0ED0B0F1A04F0BD001250AE0B9
:103E40000121201D02F0EEFE03E00098012102F0A6
:103E500079FF05466DB12E46208800041FD5E06E1F
:103E6000D8B1B0F1805F0ED0B0F1005F10D0012565
:103E700014E0D4F8AC20D9F8001021F0E04111434F
:103E8000C9F80010E8E7386840F40030386004E012
:103E90000121201D02F0C6FE05466DB12E462068A8
:103EA000C0011ED5606CD0B101280ED0022811D0FF
:103EB000032814D0012513E0E26ED8F8001021F099
:103EC00040511143C8F80010E9E7386840F4003069
:103ED000386004E00221201D02F0A4FE054685B1F1
:103EE0002E462068DFF85CB04002ABF11C0B57D5C2
:103EF0001648016841F480710160FEF7C9FF8246EF
:103F00000EE01148626C001F016821F003011143AB
:103F10000160E6E7FEF7BCFFA0EB0A0064283DD88D
:103F20000A480068C005F5D57DBBDFF81CA0B4F8D1
:103F3000B0200AF1200ADAF8001002F4407001F40F
:103F4000407105E02C440258504402580048025881
:103F5000814211D0DAF80010DAF8002021F4407123
:103F600042F48032CAF80020DAF8002022F48032CD
:103F7000CAF80020CAF80010D4F8B000B0F5807F6D
:103F800021D1FEF785FF019019E008E0FEF780FFE0
:103F90000199411A41F28830814210D903252E46F9
:103FA0002078DFF844A4C0073DD0A06F182838D08F
:103FB00026DC80B3082829D0102825D12CE0DAF897
:103FC00000008007E2D5D4F8B010C1F30120032827
:103FD00058460DD0016821F47C510160B4F8B0203E
:103FE000DAF80010C2F30B021143CAF80010D7E749
:103FF000FE4A036802EA111223F47C511143ECE7F4
:1040000020280ED028280CD001250BE00121201DEE
:1040100002F008FE04E004E00098012102F092FEA4
:1040200005465DB12E46207880071ED5606F0628B4
:1040300019D2DFE800F0160C11161616A26FDAF886
:10404000001021F038011143CAF80010EBE70121FC
:10405000201D02F0E7FD03E00098012102F072FE4E
:10406000054675B100E001252E46207840071FD592
:10407000D4F89000062819D2DFE800F0160C1116CB
:104080001616626FDAF8001021F007011143CAF822
:104090000010EAE70121201D02F0C4FD03E00098B2
:1040A000012102F04FFE05469DB100E001252E469C
:1040B000207880062BD5D4F88C00B0F1405F24D056
:1040C00011DC10B3B0F1805F15D0B0F1005F10D1FA
:1040D00016E0D4F89020D9F8001021F00701114320
:1040E000C9F80010E4E7B0F1804F0ED0B0F1A04F56
:1040F0000BD001250AE00021201D02F093FD03E012
:104100000098022102F01EFE05468DB12E46207851
:1041100040062BD5D4F89800B0F5406F24D011DCC0
:1041200010B3B0F5806F15D0B0F5006F10D116E068
:10413000D4F88C20DAF8001021F0E0411143CAF8DD
:104140000010E4E7B0F5805F0ED0B0F5A05F0BD0B3
:1041500001250AE00021201D02F064FD03E0009823
:10416000022102F0EFFD05468DB12E4620780006B3
:104170002BD5D4F89C00B0F5C04F24D011DC10B37F
:10418000B0F5005F15D0B0F5804F10D116E0D4F82F
:104190009820D9F8001021F4E0511143C9F800101B
:1041A000E4E7B0F5004F0ED0B0F5204F0BD001255D
:1041B0000AE00021201D02F035FD03E000980221F5
:1041C00002F0C0FD05464DB12E46207800071ED5F1
:1041D000D4F88000B0F5805F0AD00FE0D4F89C20BE
:1041E000D9F8001021F460411143C9F80010ECE740
:1041F0000098022102F0A6FD00B10126D4F880202B
:10420000DAF8001021F440511143CAF80010207868
:10421000C00613D5D4F89400B0F5807F05D100987E
:10422000022102F08FFD00B10126D4F89420D9F8C4
:10423000001021F440711143C9F8001020680003F8
:1042400016D5D4F8A00038B1B0F5803F09D0B0F54C
:10425000003F0BD001250AE00021201D02F0E2FC06
:1042600003E00098022102F06DFD054685B12E465F
:104270002068400322D5D4F88400B0F5801F11D007
:10428000B0F5001F13D0B0F5401F15D0012514E084
:10429000D4F8A020D9F8001021F440311143C9F816
:1042A0000010E5E7386840F40030386004E000981A
:1042B000012102F047FD054655B12E462068C00396
:1042C0001CD5E06C70B1B0F5803F10D0012514E032
:1042D000D4F88420DAF8001021F440111143CAF810
:1042E0000010EBE7386840F40030386004E0022149
:1042F000201D02F097FC0546CDB12E4620688000B7
:1043000005D50098022102F01DFD00B101262068AC
:1043100080031BD5E06FB8B1B0F5807F10D0B0F549
:10432000007F11D0B0F5407F0ED001250DE02E4862
:10433000E26C0838016821F4803111430160DDE747
:10434000386840F400303860F5B32E462068C0026B
:1043500007D5226FD8F8001021F000411143C8F8AA
:1043600000102068C00008D5D4F8B420DBF8001095
:1043700021F480411143CBF800102068800207D55A
:10438000A26ED8F8001021F080711143C8F8001017
:10439000206840000CD5DBF8001021F40041CBF878
:1043A0000010DBF80010D4F8B8201143CBF800104F
:1043B0002068002807DA0C48226D0838016821F0CF
:1043C00040511143016000E014E02068000208D56C
:1043D000D4F88820DAF8001021F440011143CAF81B
:1043E000001086B1012003E054440258CFFFFF00C3
:1043F000BDE8FC9FE26FDAF8001021F44071114330
:10440000CAF80010A2E70020EDE700002DE9F05FF8
:1044100004000F467ED0DFF83882D8F8000000F0A4
:104420000F00B8420CD2D8F8001021F00F01394328
:10443000C8F80010D8F8000000F00F00B84269D1A9
:104440002078844D40070AD52069296801F0700161
:10445000884204D9296821F070010143296020783D
:104460007C4E361D00070AD56069316801F0700185
:10447000884204D9316821F070010143316020780D
:10448000C0060AD5A069316801F4E061884204D908
:10449000316821F4E061014331602078DFF8B4B184
:1044A00080060BF1080B0CD5E1695846DBF80020BB
:1044B00002F07002914204D9026822F070020A43AD
:1044C0000260207880070AD5E068296801F00F01B2
:1044D000884204D9296821F00F010143296020781E
:1044E000C0073ED05B49A2682868183920F4706084
:1044F000104328606068022818D0032819D0096882
:10450000012819D0490700294ADADFF848A1AAF1A1
:10451000080A00E044E0DAF8002022F00702024333
:10452000CAF80020FEF7B4FC814612E0096889034E
:10453000E9E709688901E6E7C905E4E7FEF7A8FCB1
:10454000A0EB090141F28830814202D90320BDE885
:10455000F09F6168DAF8000000F03800B0EBC10F9E
:10456000ECD1207880070AD5E068296801F00F01B6
:10457000884204D2296821F00F0101432960D8F84C
:104580000010404601F00F01B9420BD9016821F03B
:104590000F0139430160006800F00F00B84201D0FC
:1045A0000120D4E7207840070AD52069296801F066
:1045B0007001884204D2296821F07001014329600A
:1045C000207800070AD56069316801F070018842DF
:1045D00004D2316821F07001014331602078C006B7
:1045E0000AD5A069316801F4E061884204D23168DB
:1045F00021F4E06101433160207880060CD5E16947
:104600005846DBF8002002F07002914204D20268A2
:1046100022F070020A43026000F06CF80E492A682A
:104620002B68C2F3032203F00F038A5CC95C02F01B
:104630001F0201F01F01D040084A20FA01F1116069
:104640000749086007480068BDE8F05FFEF7ACBEA8
:104650000020005218440258E080000898430024CB
:10466000944300248C43002430B500F043F80B4AF7
:104670000B490C4B15681468C5F3032204F00F04B2
:104680008A5C095D02F01F0201F01F01D040064A5A
:1046900020FA01F119601060084630BD1844025834
:1046A000E0800008984300249443002400B5FFF7FD
:1046B000DBFF05490968054AC1F30211515C01F0AD
:1046C0001F01C84000BD00001C440258E0800008E3
:1046D00000B5FFF7C9FF05490968054AC1F3022182
:1046E000515C01F01F01C84000BD00001C4402588D
:1046F000E0800008454970B545480968434B103BC8
:1047000011F0380208D00111082A03D0102A0BD06A
:10471000182A0BD0084670BD19688906FBD51968A0
:10472000C1F3C101C84070BD3A4870BD3749374D2B
:1047300018310C1D24350A68096826682D6802F0B6
:10474000030406F00102C1F30511C5F3CC0515FB06
:1047500002F200EE102AB8EE400AE9B32F4ADFED6C
:104760002E0AB7EE001A6CB1DFED2D1A012C01D024
:10477000022C43D002EE101A1068F8EE422A81EEA5
:10478000A22A1EE01C68A40611D51B6801EE901A2F
:104790001168C3F3C103F8EE612AD84001EE900A14
:1047A000C1F30800F8EE611A81EEA22A0BE001EED7
:1047B000901ADFED1C2A00BFF8EE611A106882EE35
:1047C000A12AC0F3080001EE900AF8EE611A40EE4B
:1047D000201A31EE810A00E015E022EE000A10688E
:1047E000C0F34620401C00EE900AF8EE600A80EE0E
:1047F000201ABCEEC10A10EE100A70BD01EE901A2C
:10480000DFED092AD8E7002070BD000010440258EF
:104810000090D00340787D010000003930440258F8
:104820000024744A0024744C20BCBE4B2DE9F05F78
:1048300004007DD0FF4F2078FE4D1837DFF8F49349
:10484000103DC00748D0D9F80000396800F03800A2
:10485000102815D0182803D101F0030002280FD02A
:104860006068B0F5803F12D010B1B0F5A02F18D01D
:10487000286820F480302860286820F4802009E02F
:104880002868800328D560680028D2D024E02868F2
:1048900040F480302860606888B1FEF7F9FA064677
:1048A00009E0286840F480202860F0E7FEF7F0FA7D
:1048B000801B64286FD828688003F7D50CE0FEF7CA
:1048C000E7FA064605E000BFFEF7E2FA801B64281F
:1048D000F0D828688003F7D4207841F20308D54E39
:1048E0000C3E800769D5D9F80000396810F038000F
:1048F0000ED0182801D188070AD0E06890B3296843
:1049000021F0190101432960FEF7C2FA824631E025
:104910002868400702D5E06800288AD0E168286846
:1049200020F0190008432860FEF7B2FA824607E03B
:10493000DFE000BFFEF7ACFAA0EB0A000228B9D80E
:1049400028684007F6D500BFFEF79CFA40451BD803
:104950002069402812D0316821F47C3141EA0030CE
:1049600030602AE018E000BFFEF792FAA0EB0A00E0
:1049700002289FD828684007F6D5E5E7306820F47C
:104980007C3040F40030EBE7207C316821F0FE41C0
:1049900041EA0060E4E70DE1286820F001002860AA
:1049A000FEF776FA824605E0FEF772FAA0EB0A00FF
:1049B00002288DD828684007F6D42078C0065DD537
:1049C000D9F80000DFF86CB2396800F03800ABF1BC
:1049D000040B082810D0182803D101F00300012887
:1049E0000AD0E0690028286838D040F080002860AC
:1049F000FEF74EFA824623E02868C00523D5E06919
:104A0000802876D11FE0206A202821D0316821F04B
:104A1000F84141EA8060306030E000BF94F8201037
:104A2000DBF8002022F07C5242EA0161CBF8001052
:104A300024E000BFFEF72CFAA0EB0A00022898D869
:104A40002868C005F6D5FEF71DFA4045E6D8DAE736
:104A5000306820F0F84040F08040DCE720F0800033
:104A60002860FEF715FA064605E000BFFEF710FACB
:104A7000801B02289DD82868C005F7D4207800073D
:104A800029D56C486169643000298046016811D0DD
:104A900041F001010160FEF7FBF9064605E000BFA9
:104AA000FEF7F6F9801B0228C9D8D8F80000800765
:104AB000F6D510E021F001010160FEF7E9F90646A4
:104AC00005E000BFFEF7E4F9801B022872D8D8F891
:104AD00000008007F6D42078800623D5A06900283E
:104AE000286810D040F480502860FEF7D1F90646BF
:104AF00005E02CE1FEF7CCF9801B02285AD8286883
:104B00008004F7D50EE020F480502860FEF7C0F94D
:104B1000064604E0FEF7BCF9801B02284AD8286844
:104B20008004F7D4207840074FD5DFF80C81D8F8FF
:104B3000001041F48071C8F80010FEF7A9F906468C
:104B400005E000BFFEF7A4F9801B642832D8D8F82E
:104B50000000C005F6D5374EA068603601280AD09F
:104B600008B1052813D0306820F0010030603068AB
:104B700020F0040002E0306840F001003060A068DE
:104B800041F2883A90B1FEF783F980460AE0306836
:104B900040F004003060EEE7FEF77AF9A0EB080180
:104BA000514507D830688007F6D50EE0FEF770F95A
:104BB000804607E084E000BFFEF76AF9A0EB080139
:104BC00051457DD830688007F6D4606AB0B3DFF80D
:104BD0006480D9F8001008F12008C1F3C20103294C
:104BE0006FD00228286820F08070286003D0FEF77C
:104BF0004FF9044680E0FEF74BF9064605E000BF9A
:104C0000FEF746F9801B022873D828688001F7D484
:104C1000E26A40F2F331386854F8283F884340EAAA
:104C2000021018433860217B4FF4FE0C22894FF0AC
:104C3000FE4704E0104402580048025889E0208AE8
:104C40004902521E267DA1F5007189B2401EC2F3B1
:104C500008021143761E0CEA004001433E4807EA71
:104C6000066211433C4AC8F800100832016821F07E
:104C70000101016011684FF6F876236AB14341EAF9
:104C8000C30111600168A26921F00C0111430160A8
:104C90000168E26921F0020111430160016841F4F9
:104CA00080310160016841F400310160016841F424
:104CB00080210160016841F001010160286801E084
:104CC00017E01DE040F080702860FEF7E1F8044630
:104CD00005E000BFFEF7DCF8001B022809D82868B1
:104CE0008001F7D535E000BFFEF7D2F8001B02289F
:104CF00002D90320BDE8F09F28688001F4D428E0A1
:104D000039680128D8F8000021D0A26A01F0030315
:104D100093421CD1E26AC1F305118A4217D1216B7B
:104D2000C0F30802491E8A4211D1616BC0F34622CA
:104D3000491E91420BD1A16BC0F30642491E91421C
:104D400005D1E16BC0F30660491E814201D001200C
:104D5000D0E70020CEE700002C4402582DE9F047B0
:104D6000040029D0504A4FF0000920684F4B504DA5
:104D70009042C4F8289006D0984204D0A84202D0AD
:104D8000E1680F2918D8E1684FF0010AE76B083194
:104D9000C9080AEB57167143904205D0984203D0D8
:104DA000A84201D0082907D8904203D0984201D0E8
:104DB000A84204D1102902D90120BDE8F08794F857
:104DC000810020B9204684F8809000F073F802201A
:104DD00084F881002068016821F0010101602168E8
:104DE000A0698A68B0F1806F02F4F81010D162688F
:104DF000B2F5800F01D01AB10AE0A26B22B107E030
:104E0000A26BB2F1805F03D10A6842F480520A605B
:104E1000A66AE169E26B25683143E3680243114306
:104E20001943A960D4E90D02D4E90571636A2569C3
:104E30001843D4F820C00A43266810432843A56DC0
:104E40003843D4E90182D4E9123140EA0C0040EA47
:104E500008000843104318432843F060606868B9AD
:104E60002068816821F4C05141F4006181602068AC
:104E7000816821F4C06141F4806181602068016D26
:104E800021F0010101656068400206D52068626D6D
:104E9000C16821F000411143C160C4F8849084F8D6
:104EA00081A0002089E70000003001400038004068
:104EB000003C00402DE9F041B6B0044614212FA873
:104EC000FBF75FFABC216846FBF75BFA2A4E022724
:104ED0002A494FF005082068103E274D00248842DB
:104EE00021D18014179400906846FEF725FE08B182
:104EF000FBF7A1FF286840F480502860286800F480
:104F000080503490306840F00200306030683821C2
:104F1000CDE9307400F002002F9132942FA9CDE931
:104F20003380174823E01749884222D1401418944F
:104F300000906846FEF700FE08B1FBF77CFF28688A
:104F400040F400502860286800F400503490306825
:104F500040F01000306030686421CDE9307400F01A
:104F600010002F9132942FA9CDE933800648FDF728
:104F70006DFE36B0BDE8F081F044025800300140CB
:104F80000004025800340140001002582DE9F84F87
:104F90000F46416804461D4600201646B1F5800FB5
:104FA0004FF0040B009001D1A06888B194F8800004
:104FB000012818D04FF0010984F88090FDF768FFB0
:104FC00094F881108246002001290ED0022125E0AC
:104FD00084F881B02046009313463A46114600F00B
:104FE000E2F9BDE8F88F0220FBE7B7B1AEB1A268E5
:104FF00080466766A4F8686084F881B0C4F88400CD
:10500000A4F86A60E065A4F86000A4F86200B2F554
:10501000C02F2067606705D009E0012184F8800077
:105020000846DEE72068016821F40061016020681D
:1050300041686FF30F01314341602068016841F01E
:10504000010101606068B0F5800F04D1206801683B
:1050500041F400710160E0680F282DD948F208067C
:10506000B4F86A00D8B32068416931420BD0006BB4
:10507000616E0860606E001D6066B4F86A00401ED4
:10508000A4F86A00ECE7FDF703FFA0EB0A00A842D2
:1050900002D3681CE4D001E0002DE1D1204601F0EC
:1050A000E1FED4F8842084F8808042F48070C4F853
:1050B000840084F881902FE007281BD84AE02068FC
:1050C0004169C9070CD0008E616E0880606E801C3B
:1050D0006066B4F86A00401EA4F86A000AE03DE089
:1050E000FDF7D6FEA0EB0A00A84202D3681C01D04F
:1050F00005E025B1B4F86A000028E0D12EE0204692
:1051000001F0B0FED4F8842084F8808042F48071ED
:10511000C4F8841084F88190032062E72068416914
:10512000C9070CD090F83000616E0870606E401CAA
:105130006066B4F86A00401EA4F86A000AE0FDF751
:10514000A7FEA0EB0A00A84202D3681C02D0A5E784
:10515000002DA3D0B4F86A000028DFD1204601F06A
:1051600081FE84F88190D4F8841084F8808009B19D
:10517000012036E7009834E72DE9F84F8A4690F889
:1051800080101D461746012904464FF0000B0DD034
:105190004FF0010884F88080FDF77AFE814694F88C
:1051A00081000026012804D002201EE00220BDE874
:1051B000F88FBAF1000F17D0B7B1A1680320C4F877
:1051C0005CA0A4F8607084F88100C4F88460A4F83E
:1051D00062706666A4F86860A4F86A60B1F5C02FD2
:1051E0006667266704D008E0012084F88060DEE767
:1051F0002068016841F400610160206841686FF334
:105200000F01394341602068016841F001010160EC
:105210006068B0F5800F04D12068016841F4007126
:105220000160E0680F281BD81FE0206841698907EA
:105230000BD5E16D09680162E06D001DE065B4F811
:105240006200401EA4F862000AE0FDF721FEA0EB18
:105250000900A84202D3681C02D093E0002D2FD091
:10526000B4F862000028E0D172E007282AD86BE089
:105270002068416989071BD5B4F8621001290BD950
:10528000E16B49B1E16D09680162E06D001DE06507
:10529000B4F86200801E08E0E16D09880184E06DC9
:1052A000801CE065B4F86200401EA4F8620009E0CA
:1052B000FDF7EEFDA0EB0900A84202D3681C01D067
:1052C00060E0B5B3B4F862000028D1D140E02068B6
:1052D000416989072ED5B4F8621003290CD9E16B16
:1052E000402909D9E16D09680162E06D001DE065A2
:1052F000B4F86200001F19E0B4F8621001290BD95C
:10530000E16B49B1E16D09880184E06D801CE065C5
:10531000B4F86200801E09E0E16D097880F8201081
:10532000E06D401CE065B4F86200401EA4F8620025
:105330000AE027E0FDF7ACFDA0EB0900A84202D38C
:10534000681C01D01EE0EDB1B4F862000028BED1A7
:1053500000224B4608212046009501F0E1FD28B1CE
:10536000D4F8840040F02000C4F88400204601F006
:1053700079FD84F88180D4F8840084F8806080B15D
:10538000012014E7204601F06DFDD4F8841084F864
:10539000806041F48071C4F8841084F88180032017
:1053A00005E7584603E72DE9FF4F83B090F88010DA
:1053B00004461D4600209346109F0129019014D0F9
:1053C0004FF0010A84F880A0FDF762FD804694F852
:1053D00081006368002101282E464FF480020CD022
:1053E000934208D1A36833B903E0022007B0BDE8B7
:1053F000F08F042801D0022037E0049898B3BBF165
:10540000000F31D07DB394F88100042802D005202C
:1054100084F8810089460846C4F88410C4F864B052
:10542000A4F86A50A4F868500499E165A4F86250A1
:10543000A4F8605020676067206841686FF30F012F
:10544000294341602068016841F001010160606802
:10545000904204D12068016841F400710160E06865
:105460000F2835D846E0FFE7012084F88010BDE71B
:105470002068416989070DD565B1E16D0968016250
:10548000E06D001DE065B4F86200401EA4F8620003
:10549000B4F8625048F208022068416911420DD008
:1054A00066B1006B616E0860606E001D6066B4F8E6
:1054B0006A00401EA4F86A00B4F86A60FDF7E8FCD0
:1054C000A0EB0800B84202D3781C01D004E01FB161
:1054D00055EA0600CCD175E0204601F0C3FCD4F8B3
:1054E000842084F8809042F48070C4F8840084F8AA
:1054F00081A08EE007282ED861E0206841698907E5
:105500000DD565B1E16D09880184E06D801CE06511
:10551000B4F86200401EA4F86200B4F8625020683B
:105520004169C9070DD066B1008E616E0880606E5A
:10553000801C6066B4F86A00401EA4F86A00B4F8E3
:105540006A60FDF7A5FCA0EB0800B84202D3781C06
:1055500001D051E08FB355EA0600CED132E0206889
:10556000416989070ED56DB1E16D097880F8201089
:10557000E06D401CE065B4F86200401EA4F86200D3
:10558000B4F8625020684169C9070ED06EB190F836
:105590003000616E0870606E401C6066B4F86A008E
:1055A000401EA4F86A00B4F86A60FDF771FCA0EB35
:1055B0000800B84202D3781C01D01DE0E7B155EADB
:1055C0000600CCD10022434608212046009701F076
:1055D000A7FC28B1D4F8840040F02000C4F884006F
:1055E000204601F03FFC84F881A0D4F8841084F8B0
:1055F000809081B10120F9E6204601F033FCD4F817
:10560000842084F8809042F48071C4F8841084F877
:1056100081A00320EAE60198E8E6401EB0F1807F11
:1056200010B501D3012010BD4FF0E02460610F21BF
:10563000601702F0EEF90020A0610721216110BD82
:105640007047704770470000F0B590F83C20012A81
:105650003BD01F4E012480F83C40022280F83D20C0
:1056600002681C4D5368B242D2F808C001D0AA4269
:1056700003D14F6823F470033B430F6823F070039A
:105680001F4357600268B24213D0B2F1804F10D06E
:10569000114B9A420DD0114B9A420AD0104B9A42AC
:1056A00007D0AA4205D00F4B9A4202D00E4B9A4225
:1056B00004D189682CF0800319439160002180F89F
:1056C0003D4080F83C100846F0BD0220F0BD0000CF
:1056D00000000140000401400004004000080040B8
:1056E000000C0040001800400040014010B50400CC
:1056F00003D094F83D0010B107E0012010BD002058
:1057000084F83C00204600F023F8022084F83D0095
:105710002068211D01F01CFD012084F8480084F858
:105720003E0084F83F0084F8400084F8410084F88B
:10573000420084F8430084F8440084F8450084F86B
:10574000460084F8470084F83D00002010BD0000AA
:1057500008B51D4A01681D4891420ED1016841F00B
:105760001001016000680022012100F0100000908B
:105770003620FDF755FE362020E0154A91420CD127
:1057800012480830016841F00201016000680022FF
:10579000032100F0020000900CE00E4A914211D16A
:1057A000016841F08001016000680022022100F0E0
:1057B000800000902C20FDF733FE2C20BDE808402F
:1057C000FDF720BE08BD000000100040E84402586C
:1057D00000040140001C004090F83D10012901D058
:1057E00001207047174A022180F83D100168CB68FC
:1057F00043F00103CB600068904214D0B0F1804FB9
:1058000011D0114988420ED0104988420BD010495E
:10581000884208D00F49884205D00F49884202D0FB
:105820000E49884207D181680D4A1140062906D0E9
:10583000B1F5803F03D0016841F001010160002013
:1058400070470000000001400004004000080040D4
:10585000000C0040000401400018004000400140DE
:105860000700010070B5044690F83C0000250128AF
:1058700014D03A4B012684F83C60022084F83D00A5
:1058800022689068184020F47F4090600868702873
:105890002FD010DC10F00F0F03D022E04FF00200E9
:1058A00070BD4FEA2012072A1BD2DFE802F05353E3
:1058B00053534B394100B0F1101F4BD009DCB0F508
:1058C000805F0FD0B0F5005F1ED0B0F5801F08D10B
:1058D00040E0A0F5801120393CD010293AD0202991
:1058E00038D0012584F83D60002084F83C0028462B
:1058F00070BD4A682068D1E9021301F08BFC206872
:10590000816841F0770109E04A682068D1E9021313
:1059100001F080FC2068816841F480418160E1E70A
:10592000CA684968206801F089FC2068502106E0B7
:10593000CA684968206801F092FC2068602101F083
:1059400073FCCFE7CA684968206801F077FC2068DB
:105950004021F4E7226801461046F0E788FFCEFFB9
:10596000704770B50446006800250169C94389077E
:1059700015D4C168C943890711D4EA1E0261012107
:105980002177206880698007204602D0FFF7E8FF72
:1059900004E000F0A7F8204600F0A5F8257720687D
:1059A0000169C943490717D4C168C943490713D4DA
:1059B00002216FF00402026121772068806910F4EF
:1059C000407F204602D0FFF7CBFF04E000F08AF8CA
:1059D000204600F088F8257720680169C943090747
:1059E00016D4C168C943090712D404216FF0080214
:1059F000026121772068C0698007204602D0FFF746
:105A0000AFFF04E000F06EF8204600F06CF8257758
:105A100020680169C943C90617D4C168C943C906CA
:105A200013D408216FF01002026121772068C06949
:105A300010F4407F204602D0FFF792FF04E000F010
:105A400051F8204600F04FF8257720680169C943D6
:105A5000C90708D1C168C943C90704D1891E0161BA
:105A6000204600F041F820680169C943090609D4BD
:105A7000C168C943090605D46FF080010161204661
:105A8000FFF7DFFD20680169C943C90509D4C16872
:105A9000C943090605D46FF4807101612046FFF700
:105AA000CFFD20680169C943490609D4C168C943CB
:105AB000490605D46FF040010161204600F080F8EE
:105AC00020680169C94389060BD4C168C9438906A6
:105AD00007D46FF0200101612046BDE87040FFF758
